:020000040000fa
:080000000002040000000000f2
:020000040000fa
:04000800b40200003e
:020000040000fa
:04000c00b40200003a
:020000040000fa
:04001000b402000036
:020000040000fa
:04001400b402000032
:020000040000fa
:04001800b40200002e
:020000040000fa
:04001c00b40200002a
:020000040000fa
:04002000b402000026
:020000040000fa
:04002400b402000022
:020000040000fa
:04002800b40200001e
:020000040000fa
:04002c00b40200001a
:020000040000fa
:04003000b402000016
:020000040000fa
:04003400b402000012
:020000040000fa
:04003800b40200000e
:020000040000fa
:04003c00b40200000a
:020000040000fa
:04004000b402000006
:020000040000fa
:04004400b402000002
:020000040000fa
:04004800b4020000fe
:020000040000fa
:04004c00b4020000fa
:020000040000fa
:04005000b4020000f6
:020000040000fa
:04005400c8360100a9
:020000040000fa
:04005800b4020000ee
:020000040000fa
:04005c00b4020000ea
:020000040000fa
:04006000b4020000e6
:020000040000fa
:04006400b4020000e2
:020000040000fa
:04006800b4020000de
:020000040000fa
:04006c00b4020000da
:020000040000fa
:04007000b4020000d6
:020000040000fa
:04007400b4020000d2
:020000040000fa
:040078000837010044
:020000040000fa
:04007c00b4020000ca
:020000040000fa
:04008000b4020000c6
:020000040000fa
:04008400003901003e
:020000040000fa
:04008800b4020000be
:020000040000fa
:04008c00b4020000ba
:020000040000fa
:04009000b4020000b6
:020000040000fa
:04009400b4020000b2
:020000040000fa
:04009800b4020000ae
:020000040000fa
:04009c00b4020000aa
:020000040000fa
:0400a000b4020000a6
:020000040000fa
:0400a400b4020000a2
:020000040000fa
:0400a800b40200009e
:020000040000fa
:0400ac00b40200009a
:020000040000fa
:0400b000b402000096
:020000040000fa
:0400b400b402000092
:020000040000fa
:0400b800b40200008e
:020000040000fa
:0400bc00b40200008a
:020000040000fa
:0400c000b402000086
:020000040000fa
:0400c400b402000082
:020000040000fa
:0400c800b40200007e
:020000040000fa
:0400cc00b40200007a
:020000040000fa
:0400d000b402000076
:020000040000fa
:0400d400b402000072
:020000040000fa
:0400d800b40200006e
:020000040000fa
:0400dc00b40200006a
:020000040000fa
:0400e000b402000066
:020000040000fa
:0400e400b402000062
:020000040000fa
:0400e800b40200005e
:020000040000fa
:0400ec00b40200005a
:020000040000fa
:0400f000b402000056
:020000040000fa
:0400f400b402000052
:020000040000fa
:0400f800b40200004e
:020000040000fa
:0400fc00b40200004a
:020000040000fa
:04010000b402000045
:020000040000fa
:04010400b402000041
:020000040000fa
:04010800b40200003d
:020000040000fa
:04010c00b402000039
:020000040000fa
:04011000b402000035
:020000040000fa
:04011400b402000031
:020000040000fa
:04011800b40200002d
:020000040000fa
:04011c00b402000029
:020000040000fa
:04012000b402000025
:020000040000fa
:04012400b402000021
:020000040000fa
:04012800b40200001d
:020000040000fa
:04012c00b402000019
:020000040000fa
:04013000b402000015
:020000040000fa
:04013400b402000011
:020000040000fa
:04013800b40200000d
:020000040000fa
:04013c00b402000009
:020000040000fa
:04014000b402000005
:020000040000fa
:04014400b402000001
:020000040000fa
:04020800b40200003c
:020000040000fa
:04020c00b402000038
:020000040000fa
:04021000b402000034
:020000040000fa
:04021400b402000030
:020000040000fa
:04021800b40200002c
:020000040000fa
:04021c00b402000028
:020000040000fa
:04022000b402000024
:020000040000fa
:04022400b402000020
:020000040000fa
:04022800b40200001c
:020000040000fa
:04022c00b402000018
:020000040000fa
:04023000b402000014
:020000040000fa
:04023400b402000010
:020000040000fa
:04023800b40200000c
:020000040000fa
:04023c00b402000008
:020000040000fa
:04024000b402000004
:020000040000fa
:04024400b402000000
:020000040000fa
:04024800b4020000fc
:020000040000fa
:04024c00b4020000f8
:020000040000fa
:04025000b4020000f4
:020000040000fa
:04025400b4020000f0
:020000040000fa
:04025800b4020000ec
:020000040000fa
:04025c00b4020000e8
:020000040000fa
:04026000b4020000e4
:020000040000fa
:04026400b4020000e0
:020000040000fa
:04026800b4020000dc
:020000040000fa
:04026c00b4020000d8
:020000040000fa
:04027000b4020000d4
:020000040000fa
:04027400b4020000d0
:020000040000fa
:04027800b4020000cc
:020000040000fa
:04027c00b4020000c8
:020000040000fa
:04028000b4020000c4
:020000040000fa
:04028400b4020000c0
:020000040000fa
:04028800b4020000bc
:020000040000fa
:04028c00b4020000b8
:020000040000fa
:04029000b4020000b4
:020000040000fa
:04029400b4020000b0
:020000040000fa
:04029800b4020000ac
:020000040000fa
:04029c00b4020000a8
:020000040000fa
:0402a000b4020000a4
:020000040000fa
:0402a400b4020000a0
:020000040000fa
:0402a800b40200009c
:020000040000fa
:0402ac00b402000098
:020000040000fa
:0402b000b402000094
:020000040000fa
:0402b400b402000090
:020000040000fa
:0402b800b40200008c
:020000040000fa
:0402bc00b402000088
:020000040000fa
:0402c000b402000084
:020000040000fa
:0402c400b402000080
:020000040000fa
:0402c800b40200007c
:020000040000fa
:0402cc00b402000078
:020000040000fa
:0402d000b402000074
:020000040000fa
:0402d400b402000070
:020000040000fa
:0402d800b40200006c
:020000040000fa
:0402dc00b402000068
:020000040000fa
:0402e000b402000064
:020000040000fa
:0402e400b402000060
:020000040000fa
:0402e800b40200005c
:020000040000fa
:0402ec00b402000058
:020000040000fa
:0402f000b402000054
:020000040000fa
:0402f400b402000050
:020000040000fa
:0402f800b40200004c
:020000040000fa
:0402fc00b402000048
:020000040000fa
:04030000b402000043
:020000040000fa
:04030400b40200003f
:020000040000fa
:04030800b40200003b
:020000040000fa
:04030c00b402000037
:020000040000fa
:04031000b402000033
:020000040000fa
:04031400b40200002f
:020000040000fa
:04031800b40200002b
:020000040000fa
:04031c00b402000027
:020000040000fa
:04032000b402000023
:020000040000fa
:04032400b40200001f
:020000040000fa
:04032800b40200001b
:020000040000fa
:04032c00b402000017
:020000040000fa
:04033000b402000013
:020000040000fa
:04033400b40200000f
:020000040000fa
:04033800b40200000b
:020000040000fa
:04033c00b402000007
:020000040000fa
:04034000b402000003
:020000040000fa
:04034400b4020000ff
:020000040000fa
:10040000af4722000eff27000e0188000000000009
:10041000000020000000e000020032000001200087
:10042000200288000c0007006093230011002000c8
:1004300011000700000020000000e0000200320070
:100440000000020000000000c61d020000000000c5
:100450000040da000000fe004440a9000000200037
:100460000000e0000300320000002000a00188002e
:100470004440a80000000600910188008000780038
:100480000000eb0015003700e280400032a0b4000d
:100490009101ba00e280400032a0b4009102ba009b
:1004a000e280400032a0b4000002eb00472bde00e7
:1004b000f507b200602ce10004003a000059eb009f
:1004c0008301e900fdff3e00040037006128e100e0
:1004d000010032000082eb000b00070011c3ba00dc
:1004e0001101ba000604e00003003a000200e00037
:1004f000e5ff3a0000000600f607b200960188000a
:1005000082007800f5ff37003159ba008301e90015
:100510000c0032002159ba008301e90008003200c2
:100520000400e00003003a00e280400032a0b40082
:10053000f5ff370011d9ba008301e900faff3a004c
:100540008100e800e180400032a0b4000000060015
:100550001aeb040000000000e42704000100000082
:10056000c2080400000000000040da000000fe00a5
:1005700007e2a9009600a9009620a9008600a9001c
:100580008620a900000006000602ab00feff3a002c
:100590000642ab00fcff3a000662ab00faff3a00ed
:1005a0000622ab00f8ff3a000682ab00f6ff3a00e5
:1005b00009c2ab00f4ff3a00000006000662a80082
:1005c0000662ab00feff3a0008c2a90000108000de
:1005d000000006008040780000c0eb008180fb0036
:1005e0001110880008e2ab0007003a0009c2ab0016
:1005f000feff3a00e4ff07000040eb000802e200c3
:1006000001003d00e0cfb3000000060006a2a800f4
:100610000682a80000000600211088003010880023
:10062000000006000622a800000006000602a8003e
:10063000000006000642a8000000060096e0a9009f
:1006400080ff2f005e21b60086e0a90000000600b2
:1006500086e0a900e7006000f2ff2800cc08dd007a
:100660007305800003016100680060000281700072
:100670004300de007205880061006000f1f72f0082
:100680004700dd00b20480008280600081007000bd
:10069000b104880000000600f00a8800000006008f
:1006a00002003700e10a8000011878005e61ab00ab
:1006b000fcff3a0000000600003a80004087a900d5
:1006c0004400de0061406000000006009460a90064
:1006d00005e1a9008460a900000006009500a900ba
:1006e0001061ab000100320011e1a9008500a900f2
:1006f000000006009500a90013e1a9008500a900eb
:10070000000006008500a900e700600082ff2f00be
:100710006800600043058000030161004300de00c3
:100720000281700061006000420588004800dd0021
:10073000f1ef2f00a2048000828060008100700031
:10074000a1048800000006009780a900e70060006f
:1007500082ff2f00680060009305800003016100a4
:100760004300de0002817000610060009205880095
:100770004c00dd00f1ff2e00b2048000828060009a
:1007800081007000b1048800000006000021ef0025
:100790001108880020088800000006000621ef00ec
:1007a0000a21ef006208880073088800800888002a
:1007b0001061a800000006000a21ef0071088800ff
:1007c00090088800000006001421ef001821ef00b7
:1007d000d2088800e3088800f00888001e61a8009d
:1007e0000000060032088000400880008001eb0015
:1007f0008000eb00c000dd0000002000020070005f
:1008000083807000000006004108880030088800de
:10081000000006005008880000000600b1088800ab
:10082000a008880000000600001020002202b60088
:100830000000e9004f00de00000006008560a9000e
:10084000e70060008580a900cc08dd000001780089
:10085000f3ff28000207b200440580008481610094
:100860004411de0083817000e800600043058800c9
:10087000c308de0083ff2f00e18060005405800084
:1008800084816100cb08dd00830171000008b200a3
:1008900053058800f27f2f004700de00a30480008c
:1008a0000301610061006000028170004c00dd0006
:1008b000a2048800f1ff2e00a40480008480600060
:1008c00081007000a1048800000006001011800063
:1008d000614060000000060042118800001188009d
:1008e000111188000000060001118000e680600000
:1008f000e68f50000c003a00030037002322ab00c3
:10090000feff3a0021118800b00078000100e000ed
:10091000faff3a00000006002322ab00feff3a0077
:100920008100fb0021118800b04078000104e00044
:10093000f9ff3a0000000600001180006600600028
:10094000e60f500002003a0030118000000006005f
:1009500030118000f00fb20000000600011180008d
:10096000e6806000e68f500001003200f00fb20018
:1009700020118800000006008680a9006701600041
:10098000e800600083ff2f00c308de0074058000cc
:1009900084816100e180600083017100c408dd0092
:1009a00073058800f2fe2f0070006000b304800021
:1009b000030161004400de000281700061006000fc
:1009c000b2048800d1ff2f00000040001404800012
:1009d000848060008100700011048800000006001f
:1009e00003f0a200889fbe008a9fbe008c1f780083
:1009f0001b010700220133006450e1004f00320068
:100a00006420e1005200320003826c0007003b00ca
:100a10000905d0000306d000820f54000c065d00cb
:100a200002003900020032008901780003067800d4
:100a30008582550004003d000003fd008103fd0098
:100a40008502ea008b854200840f720002003b00a1
:100a500060001000e08018006011b8000005eb0095
:100a60007a28e1000a00390006007800c75ddd0041
:100a7000f707b200878075002d0037008281710072
:100a80000a017800610560008180d1000080d300f8
:100a90008502e900f9ff3b00060440008784480016
:100aa00002003b0060041400e0841c000988a300dd
:100ab000070032008a817100828171006101640047
:100ac0008904d1000884d3008b05e80017003700a3
:100ad0000978a30013003a000b00e0001300340073
:100ae0008b05e9000804440089844c000a44740022
:100af0000978a3000d003a000b00e0000700340065
:100b00008b05e9000804440089844c0001003a0088
:100b10000b0020000978a300f7ff32000001eb0072
:100b200002003700828171000a01780091000700fd
:100b30000cf0a70001f0a000da0037006420e1000b
:100b400002003a00838f6c00da0033000801be0017
:100b50000200be00d3003700889fbe008a9fbe00ff
:100b60008c1f7800be000700c500330003866c00b0
:100b70006450e1002e0032006420e10033003200b6
:100b80006150e1002f0032006120e10031003200ad
:100b900085855500eb07b0000900200008042000ff
:100ba000050037000804440089844c000a00310025
:100bb0000603430087834b000001530081815b00e3
:100bc000f8ff33000203be000800a0000804440040
:100bd00089844c00f6ff3900c639dd0083017300bb
:100be00001003200130020008904d1000884d300e2
:100bf0000998a300050032000800a7000300a00028
:100c00008904d1000884d3008b05e8008904d10051
:100c10000884d3000001eb000281d20055000700d8
:100c200001f0a1000cf0a70001f0a0009d0037002a
:100c30006420e1009f0032000801be000200be00f7
:100c4000f7ff37006120e1009a0032006000b80031
:100c5000f3ff37000000200001f82700f0ff370005
:100c600014002000cd003700f4ff2f00cb00370028
:100c70000001be00650007000470a70003f0a1009a
:100c80006509b100160032000d0035006828e1004a
:100c900006003500f0ff2f00f1ff27000300e00001
:100ca00013003b0001002800000005000000400088
:100cb000818048008502e900fcff3a000800370007
:100cc000f88f420002003c008000eb0000000500ad
:100cd0008100d1000080d3008502e800fcff3a00cb
:100ce0000300e00002003b0060001000e0801800fc
:100cf000000006000001be00440007000470a700c9
:100d000003f0a10003f8a30013003a006509b10045
:100d100010003200090035006928e10002003500aa
:100d2000010028000000050000004000818048000c
:100d30008502e900fcff3a0000000600f88f42003f
:100d4000050035008100d1000080d3008502e80055
:100d5000fcff3a00000006008000eb0000000500e8
:100d60004f89de0082017800a70037006011b800cb
:100d7000b500370081002000618055000b003d0068
:100d80000b00200061fe2f000100e1001d00340077
:100d900082817100610164008904d1000884d3005c
:100da0000000e800faff3a007100200061006400d2
:100db000030070000200600009003200610444007a
:100dc000e0844c000988a500050032008b05e8008e
:100dd0006808e10002003a008904d1000884d300c9
:100de000f20f20000258e10005003d00c75ddd0064
:100df000f907b2008980750008007800000006003d
:100e00000bf827008b00780000000500c70ade0001
:100e1000f107b200f50fb20008003200e1cf420046
:100e2000020032000170a00024000500810f700054
:100e3000010032000408050044000500810f700025
:100e400002003a00140005008502e900000040009d
:100e500081c04800fcff3b000170a0002400050099
:100e60000004be00e9ff07000003be000405be0049
:100e70000200be00e5ff0700844f75000000060079
:100e80000200be006450e100050036006420e1006d
:100e9000020036000968a30001003a000800be0005
:100ea0000160a0004f0678004f05be004f04be0051
:100eb00000000600f0ff2f00f1ff2700f9ff3700c8
:100ec000889fbe008a9fbe008c1f7800e4ff070049
:100ed000ebff330003866c006450e1002400320015
:100ee0006420e100270032006150e100220032005e
:100ef0006120e100210032008b854200eb07b10048
:100f00000134b800003ab8000804420089844a005d
:100f1000013ab8000030b8008880400009014a005a
:100f200004003300000040008180480002014900b5
:100f30008b05e900c909dd00830170000100320062
:100f400013002000c814de004814dd004709de004d
:100f50001200b200c808de000884700085ff070098
:100f600001f0a1000cf0a70001f0a000cdff3700b8
:100f70006120e100cfff32000801be000200be0088
:100f8000f7ff37006150e100fcff3a00c9ff37006e
:100f90005c0007000400be0000000600889fbe0041
:100fa0008a9fbe00841f7800adff07004f007800c5
:100fb00011003300f0ff2f00838f6c0006003b0010
:100fc000040565000a00a7000800370009f0a60024
:100fd0001000200008003700820f5400838f5c004f
:100fe000030039001000200001003e000000200036
:100ff00009f0a7000000ea004f05be004f04be0044
:101000000000e00000000600881f7800030478005c
:101010000300e00007003d0060001000e0801800c1
:1010200060011900e081190002003b0001f02d0071
:10103000030037000400070008f0a70001f0a0003b
:101040004f04780000000600889fbe008a9fbe0003
:1010500000827000040271000482710026003200d8
:101060000004be000200be006011b8006b09200041
:10107000950220000182cf000a0039000541b1002d
:101080000082cf00070039000541b1000982cf007e
:10109000040039000541b1000882cf000100390089
:1010a0000541b10005425200120032000a003b0027
:1010b00082817100610164008100d1000080d30051
:1010c0008984d3000884d3008b05e8000442e8003b
:1010d000f7ff3a00070037000804440089844c00f9
:1010e00000004800818048008b05e9000442e900c7
:1010f000f9ff3a001fff07004f05be004f04be0076
:10110000000006006022b800060220000000d000a7
:101110008180d2000482d2008582d2000000a0002b
:101120000202520083825a00030031000202420090
:1011300083824a000000a1000603e900f3ff3a00a1
:10114000000006001004b100070035009001b10056
:10115000040034007000b100030035009001b100bc
:1011600001003c0010000500000005001002b10065
:1011700003003500d005b10001003c00100005005f
:1011800000000500881f780002047800080178003c
:101190005b040700080040004f04780000000600d0
:1011a0000000fa00881f780000047800ea815700e8
:1011b0003fb9970088007800208c200007000700c6
:1011c0000000e000020035008040eb000174780070
:1011d0004f0478000080fa00000006006200fa0068
:1011e000889fbe008a1f780000057800810478007f
:1011f000020478008300780080f92f000f0040007f
:10120000670607009a979f00a9979f000000eb00d0
:10121000b09f9f001885fb008a04fb000a05ea00c6
:101220004f55de0050022000808f54000d00320028
:10123000e10f55000b003a000a01780088007800a1
:101240002f9097009f91970003000100a0979f00a7
:101250000000e0008e0032003f9897000000e80098
:10126000b09f9f000a04440050022000808f540069
:10127000040032000900e000e6ff3a003f989700c2
:10128000840037000000eb00909f9f00809f9f002c
:10129000f0979f00e0979f00d0979f00c0979f0016
:1012a00007003700414622000100500000004000c6
:1012b0008145220061007800df98970001007000ee
:1012c000d09f9f0088047800090478003845780092
:1012d0008a00fb0040462200100407000000e000e6
:1012e000f0ff3a00a1c2b300814f55000e003a0052
:1012f000cf8897000180e900c08f9f001000780020
:10130000c09f9f000000e00005003d000000ea00d3
:10131000c09f9f005f9897000020a000d09f9f0073
:101320000904e8000f003700c09f9f000000eb0099
:1013300005003700f2ff2700820f50000200320044
:101340006a01b9000280400009047800880478002e
:10135000b900fb000103b100e98f5000f5ff360032
:10136000c09f9f00e0c2b300984f100002003200ff
:101370000080eb0019003700a0c2b300d84f100066
:1013800007003a00cf8897000180e900c08f9f00d6
:1013900010007800a09f9f000804e80010003700ac
:1013a0000000eb00a09f9f00880078000500370038
:1013b000f3ff2700830f5000020032006a02b900d9
:1013c0000400410001047800880078003101fb002e
:1013d0000203b100e90f5100f5ff3600a09f9f0006
:1013e000984478008900fb0000452200cb030700e9
:1013f0000000e000020032000804e80001003700ad
:101400008044eb00c97f9f0080c6b30080cf5400aa
:1014100004003a0098cf14000a003a0066405000d9
:1014200006003700c0c6b30080cf540005003a0064
:1014300098cf140003003a0065404000c07f9f0031
:101440000804e8001801fb00e3fb2f008f81410036
:1014500081f92f008f804000a0f92f000f0040007d
:10146000100007000000e00009003a00e1fb2f0037
:101470008f804000a0f92f000f0040000c050700ee
:101480000000e000020035000804e80061ff3700ba
:101490000080eb004f0578004f04be000080fa008a
:1014a00000000600889fbe008a1f780000047800b4
:1014b000824478000305780070c6b30080cf5400e2
:1014c0001a003c0000c0e90080cf5400c5003d0078
:1014d0006d40500080cf5400740032000b003c007f
:1014e0007140500080cf54002d013c0000c0e90045
:1014f00080cf5400bb003d0050c2b30080cf5400e9
:10150000240132007c4040000500370030c6b300a3
:1015100080cf54001a0032001e003c0000c0e900d9
:1015200080cf54001e013a00ae003700f0c6b30071
:1015300080cf54005d00320007003c006640500040
:1015400080cf5400130032006540400080cf54002b
:1015500013013a00cc00370050c7b30080cf5400cd
:10156000520032006340400080cf54004f003200f0
:1015700002c7b30082cf540009013a00f7003700d8
:101580001181e900820878007800900012757800d7
:101590000901370028609000c2c6b300824f500096
:1015a00007003a00110178006400510080087800bb
:1015b0001000be004f89de00820178001100370064
:1015c00012c7b300824f500003003200a2c6b3001e
:1015d000824f500006003a00110178006800510067
:1015e000800878005001be004000be0005003700b2
:1015f0001180e9008008780010007800cf80de00bc
:101600006109b900009cbe000294be0028629000ef
:1016100085c6b300854f52000d00320025c6b300c9
:10162000854f520004003a000000fb00cf80de002e
:101630006109b9000800370045c7b300854f520063
:1016400003003200e6c24200854f520004003a0017
:10165000cf80de006109b900009cbe000294be008c
:101660003802be002803be0078009000d1c2b3004b
:10167000e00f5200e08f5a00e00f5b00e08f5b004c
:1016800008003500881090000118a3000200320005
:10169000b1c2b300030037000108a3004c003200c0
:1016a00001c2b30001757800470037002860900040
:1016b000c2c6b300824f500006003a001101780004
:1016c00064005100800878001000be006011b8006e
:1016d0001100370012c7b300824f500003003200e0
:1016e000a2c6b300824f500006003a0011017800f4
:1016f00068005100800878005001be004000be0024
:10170000050037001180e90080087800100078009b
:101710008000eb006011b800009cbe000294be0087
:101720002862900085c6b300854f52000d0032003c
:1017300025c6b300854f520004003a000080fb002c
:101740008000eb006011b8000800370045c7b30007
:10175000854f520003003200e6c24200854f52001e
:1017600004003a008000eb006011b800009cbe004d
:101770000294be00081090000038a300140032004c
:101780003800be002801be00e00f5000e08f580076
:10179000e00f5900e08f59000d00320080c7b30000
:1017a00080cf54000300320080c5b30080cf5400c6
:1017b00007003a007800900001c3b300017578007b
:1017c0000000e800097578000000e8007004980047
:1017d00078009000000545006a0498008940780070
:1017e0006900370028619000c0c4b300804f5100e9
:1017f00006003a0011017800680051008008780066
:101800005001be004000be00050037001101780005
:1018100064005100800878001000be00e605070053
:10182000009cbe000294be00b800900078009000ba
:101830000100e00002003d00d1c2b3000800370003
:10184000881090000118a30002003200b1c2b3005a
:10185000030037000108a3000400320001c2b300f6
:10186000017578000000e80070049800780090008e
:10187000000545006a0498008900fb000800780014
:10188000530007004e00370028619000c3c6b30024
:101890001180e900834f5100240032000a003c000f
:1018a000e4c15100834f51002700320083c1e8009a
:1018b000834f51001500320020c6b300804f510005
:1018c00020003a000a00370043c7b300834f51009d
:1018d0001d003200e6c14100834f51001a00320062
:1018e00010c7b300804f510016003a0006003700c1
:1018f0001180e9008008780010007800485c9000b2
:10190000084878002e0037001180e9008008780030
:1019100010007800680a9000cfa2de00612bb900a9
:101920000498be000690be002500370080087800ad
:101930001000780068099000cf91de000288be0098
:101940001f0037001180e90080087800100078003f
:10195000680c900008087800190037001181e90030
:101960008208780012027800cfa2de00612bb90055
:10197000049cbe000694be00f800900001054500de
:101980006a049800804078000800780099020700f7
:101990000b003700780090000975780006003700ca
:1019a00078009000000545000904e00001003a00bd
:1019b00059c2b300094d78000000e8007004980097
:1019c0000000eb004f0578004f04be000000060049
:1019d0002f04b000889fbe008a9fbe008c9fbe006f
:1019e0008e1f78000007780081f79f003e04be003c
:1019f0002e05be005e0890000000e00002003d00e1
:101a000060002000500f98008e00780020fb2f000f
:101a10000f0040004d020700e20f50000a003a009c
:101a200030002000100f9800b1c9b3000ff09700ec
:101a300081404000a03d2200e1cf50000d003e005b
:101a4000603d22000b0037000000e0000f00340072
:101a500030002000100f9800b1c9b3000ff19700bb
:101a600081404100203e2200e1cf500001003e00b5
:101a7000e03d2200ee009000b0487800b0687800a9
:101a80001040780090409800f30037000000e0001c
:101a900005003a0022fb2f000f01410000197800d9
:101aa0008001eb00e70037006022b8006033b80027
:101ab0000800be000a01be00870407000000e00025
:101ac00001003d000bf0a200705927009f9897007d
:101ad0000088b900026a280013002000e204070011
:101ae000640650009c9f9f0013003b006306160095
:101af000c0ff2f00000666008c01ea00939f9f0044
:101b00006d3e22000800be000a01be00070037003b
:101b10000c08a300030032003d02be002d03be00ee
:101b2000730507000c86d100e88646000c00e00033
:101b3000f7ff3c00180037000c00e00018003200ee
:101b4000c0ff2f00000666009c9f9f006d3e220094
:101b50006000b8000200200003ff230007003700e8
:101b60000c08a300030032003d02be002d03be009e
:101b70005f0507000c86d100e88646000c00e000f7
:101b8000f7ff3c000002be000203be000800be00da
:101b90000a01be005a0407000004be000205be0090
:101ba000de08900060c6b3000ff29700804f52002d
:101bb000040032006000200062c4b300824f520073
:101bc00002003a009f9a97006a804200810040001c
:101bd000f1b79f0001037800f30f530002003400b7
:101be00037012000f7b79f0000c3b300c0779f0004
:101bf00056fb2f000f0343000e007800a0b79f0094
:101c0000060778003d0037000800be000a01be004c
:101c1000080507000006be007fb19700680151006b
:101c2000f2b79f004240a9000c0034002d050700c8
:101c30000002be000203be000800be000a01be0092
:101c4000a00507006022b80046782d00771924000f
:101c5000270507000004be000205be00e80047009b
:101c60008e0020000802be000a03be00b4b79f0029
:101c7000c5b79f00d6b79f00e7b79f000c01be0015
:101c8000010478000c003700a400200005002000ab
:101c9000c0fd2f000f004000840107006fa89700cf
:101ca000ffa897000fb197009fb1970005c3b3003d
:101cb000056441000001be00e00f5100e08f5900b3
:101cc000030034000e07e900e10f4700eeff3a0081
:101cd000880078003fb49700cfb497005fb59700b5
:101ce000efb597000200370000c3b30080607800b2
:101cf0000e07e900fcff3b00688740007fb39700b8
:101d00000600e000070034006022b8006033b8002d
:101d10000800be000a01be00f40307000000e00056
:101d2000b9ff3c000e0378002fb7970051fb2f003e
:101d30008f804000010353009f9b97006780430002
:101d4000909f9f00020037000603e9000000e900b1
:101d5000010178008200780003c3b300b1cf110005
:101d6000f9ff3200909f9f00de09900061c6b3002a
:101d70000ff29700814f52000300320061c4b3009c
:101d8000814f520002003a000000e8000a003700cc
:101d90001000200051c6b3008ff2970081cf52008f
:101da000050032000540780050c4b2000080fb00fe
:101db0000000e9004f00de0083014000868f5100e3
:101dc00001003400860178000300e0001d003500aa
:101dd00000c3b300868f510006003d0062c2790047
:101de0006940400041c3b300814f520001003c00f4
:101df000694050008300e900810041000100370084
:101e0000840178000302e90001037800a142780010
:101e100080cf5200faff320091c3b300814f5000cf
:101e200001003a00054be8000400e00005003d0019
:101e30000201e9008301e8001f9b97000603e80008
:101e4000969f9f008ff397008700fb001f9a9700d3
:101e50000e007800060007004f0778004f06be000e
:101e60004f05be004f04be002f04b1000000060065
:101e7000f0874700889fbe008a9fbe008c9fbe00ef
:101e80008e1f780000047800814478000205be00af
:101e9000040678000b00e00002003c001b0020005c
:101ea0008a47220060c6b30080cf54000e00320083
:101eb00060c4b30080cf54000b00320070c6b30082
:101ec00080cf54000300320070c4b30080cf5400b0
:101ed00081003a00e40f46007f003500580890006a
:101ee000800f56007c003d000c06e80060c6b30081
:101ef00080cf54001000320060c4b30080cf540083
:101f00000d003200081090000038a30004003a00d1
:101f100058089000808f550001003d005b0c980030
:101f2000580890000c005000500c980002003b0034
:101f30000000eb00500c980018089000e80090009a
:101f40000c00e00026003c0002c3b3008270780061
:101f50000000e800100c9800d80890000100e00094
:101f600003003c00881090000138a30005003200f7
:101f7000e8009000e2c2b300827078000000e80040
:101f8000100c9800580890008c00ea00810f500057
:101f900001003d000006ea008c00ea00210c9800d8
:101fa000000646005c0c98008b0f560001003400c0
:101fb0000b0678003c0c9800e80090001808900090
:101fc000008040000c0178008a007800cc000700f7
:101fd000580890000c0650004c0c980090003700f8
:101fe0008c8f550018003d00008040000b017800e8
:101ff0008a007800c20007001808900000804500a1
:10200000100c98008b0556002b0c9800d8089000f7
:102010000100e00003003c00881090000138a3009c
:1020200006003200e8009000e2c2b300827078003f
:10203000380890000000e800300c98005808900024
:10204000400c980076003700008040000c017800ba
:102050008a007800aa0007001808900000004600d7
:10206000100c98008c855500d80890000100e00005
:1020700003003c00881090000138a30005003200e6
:10208000e8009000e2c2b300827078000000e8002f
:10209000100c980058089000808f55000100340003
:1020a00080057800e800900018089000008040004b
:1020b0008c0045000b017800910007001808900083
:1020c0000b004000100c9800580890008b05500041
:1020d0002b0c98005200370018089000e800900080
:1020e0009a7078000000e800100c9800d808900062
:1020f0000100e00003003c00881090000138a300bc
:1021000005003200e8009000e2c2b300827078005f
:102110000000e800100c9800580890000000e00053
:10212000100034008b05e900808f55000100340059
:1021300080057800e80090001808900000804000ba
:102140008a00e8000b0178006d0007001808900075
:102150000b004000100c9800580890008b055000b0
:102160002b0c9800e80090001808900000804000b8
:10217000095878000007e8000c00e0000400350072
:10218000b1c2b300014878008e0478000400370023
:10219000d1c2b300014878008e0478000c06ea0032
:1021a0007d8557008006eb0009003700a200200063
:1021b0008c00780072805700310007007fb09700d4
:1021c0008fb89700016d7800000678008d06e80052
:1021d0000c00e000f5ff3c000d00e00009003a00b3
:1021e0008e04780000c3b300805c780005003700df
:1021f0008d06e900fc80570061c07e0002c3b30079
:10220000825c40000d00e000f9ff3c00e800900017
:10221000180890000080400080845400390c980019
:102220000810900074006000f00f50000e003a009b
:10223000980890007800900000804000a808900066
:1022400001004000b808900001004000c80890005c
:1022500001004000f8089000810f500002003d008e
:1022600000805000000c98004f0778004f06be0019
:102270004f05be004f04be000f01b1000000060074
:102280008002780001037800110009000203d800e1
:1022900080017800830a78000299b9000201530096
:1022a000920298000500780000000600881f780060
:1022b0008a9fbe008c9fbe00000478000205be000d
:1022c0000406be000401be000a00be00e6020700cc
:1022d000008cbe000c01be00fc0307000005550089
:1022e00081855d002a0498003b049800080078006e
:1022f0004f06be004f05be004f04780000000600e8
:102300008001780002003700b15978000201e9002d
:102310000200e000fcff3a00000006000200370067
:102320000304e0000600320000017800020078009b
:10233000b041780081cf5100f9ff3a000100370029
:102340000001eb000200780000000600889fbe003c
:1023500000047800e68440001900d0004500de004b
:10236000f27f2000820f500010003a00000ceb00ba
:10237000990478006f816400200020001b003a005f
:10238000210190000200e00018003a0011019000c5
:102390000200e00015003a00100020001100e000eb
:1023a0001200320020002000100037000000e00082
:1023b00004003a0001007800fb0107000000e00083
:1023c00008003c00f20028001901610001fe230012
:1023d000810c710021c02f00010c40000080eb0037
:1023e00002003700000ceb000000eb004f04be00c1
:1023f00000000600fc874700889fbe008a9fbe0041
:102400008c9fbe008e1f78000006780080c5b30048
:1024100080cf50000a0032007740400080cf50004b
:102420000a0032006940400080cf50000b003200ab
:10243000f043220080bf9f00ae0020000a0037005a
:10244000e242220082bf9f0006003700f3432200d1
:1024500083bf9f008e00200003003700f44322005a
:1024600084bf9f000e0120003c02be002c03be0072
:102470000605be000404be0040c6b30080cf500075
:10248000030032006540400080cf50000b003a004e
:10249000e00f5200e08f5a00e00f5b00e08f5b001e
:1024a00006003d006000b8006011b8000404500050
:1024b000858458000605590087855900e80f5700a4
:1024c0000400320040002000f00f570038003a00ae
:1024d0000100370030002000e00f5400e08f5c0066
:1024e000e00f5d00e08f5d0004003a00dc08900022
:1024f0008d0120000100e000060032008e00e9009e
:10250000888060008fba9700e5c07800f1ef9f00e7
:102510007d012000800078008100e9000500330083
:102520008b05d1000a85d3008984d3000884d300a9
:10253000f9ff3700089ebe000a96be001200370061
:102540008d06e9008e00e900848060000fb99700d5
:10255000e2c1780082fd2f000f01410003f17e00ef
:10256000800078008100e900050033008783d100f6
:102570000683d3008582d3000482d300f9ff37009d
:10258000049ebe000696be003c02be002c03be00a8
:10259000e00f5200e08f5a00e00f5b00e08f5b001d
:1025a0008b0034000d00e000e5ff3c0088003700a0
:1025b0002c60900081c6b300814f50000b003200a8
:1025c00006003c000004e00008003200e6c05000b5
:1025d000814f50004e003a0004003700c1c6b300de
:1025e000814f50004a003a00210037000800e00007
:1025f00004003a005c0890008d0120000000e0001b
:1026000006003200110009000e84d8000fb99700af
:10261000e2c07800f1ef9f007d0120001100090069
:102620000e84d8000a003700110009000e04d800fb
:102630008d06e9000e81b900020454008fb897009e
:1026400061417c0081fd2f008f80400082f07e0080
:10265000000478000800e000020032000d00e000f5
:10266000f1ff3c00cfc4de00614db900250037000a
:10267000e00f5400e08f5c0004003a005c0890001a
:102680008d0120000000e000070032006171b900f8
:102690000800be003efa07008fb99700e3417800ba
:1026a000f3ef9f007d0120006171b9000800be00ba
:1026b00094fa07000b0037006171b9000800be00f2
:1026c000e90107008d06e90000f1b9000204540099
:1026d0000fba9700e4427c0084fd2f000f024200f5
:1026e00005f27e000004be00e00f5000e08f5800ad
:1026f000020032000d00e000efff3c004fcdde0095
:102700008a057800089ebe000a96be003000370099
:10271000e00f5400e08f5c00e00f5d00e08f5d0093
:1027200004003a005c0890008d0120000000e000e9
:10273000090032006172b900612bb9000800be00c7
:102740000a01be00870307000fba970064427800b1
:10275000f4ef9f007d0120006172b900612bb90088
:102760000800be000a01be00770307000d00370015
:102770006172b900612bb9000800be000a01be00f9
:102780007c0307008d06e90000f2b9000404540040
:102790008fba970065427c0085fd2f008f82420032
:1027a00084f27e00009ebe000296be003c04be0085
:1027b0002c05be00e00f5400e08f5c00e00f5d00d0
:1027c000e08f5d00020034000d00e000e8ff3c00f7
:1027d000e80f570010003a000c1090000038a300da
:1027e0000d003200f78f560006003e0085fd2f00d9
:1027f0008f824200e5c07e0000c3b30080cf50004e
:10280000050032008d06e90002c3b30081fd2f00f0
:102810008f80400082f07e0078811600120e9800b2
:102820006c00900083fd2f008f8141008d8041005e
:10283000b3fe07001c089000dc089000810f5000d8
:1028400006003d0000805000000e98000c10900023
:102850000040a100001698000f0037000100e000c2
:102860000d003d008c109000f4806000f08f50004f
:1028700009003a007c099000fc00900081005100a2
:102880000c09900082805000008050004240a90056
:1028900001003400000e98004f0778004f06be007c
:1028a0004f05be004f04be00cf01b100000006007e
:1028b0000400fa00889fbe008a9fbe008c1f78002b
:1028c0000004780001067800f80d90007800900070
:1028d00080855500080890008085550018089000f4
:1028e00080855500280890008085550038089000a4
:1028f0008085550048089000808555000002220020
:1029000090bf9f0000032300a0bf9f00081090000d
:102910000028a30015003a000b00e000130034006b
:102920000b0578008a047800e20f5500010036009c
:1029300029002000c801900009017800ee805700ae
:102940005800900003000100500498000000e000cf
:102950008c0032006808900009004000600c98006c
:10296000090555004240a900eeff3c0078019000a7
:102970000200e0000c003400c80190008c007800d8
:102980005800900003000100500498008080eb0084
:102990000000e0007c003200e80890007800900021
:1029a00000804000600c9800880c90000900e00056
:1029b0001100340009057800e28f54000100360050
:1029c0002a002000c80190000a017800ec8057001e
:1029d0005800900003000100500498000000e0003f
:1029e00068003200680890000a004000600c9800ff
:1029f0008a845400edff3700180990000200e000bf
:102a00000c003400c8019000e800900058009000cd
:102a100003000100500498008080eb000000e000fb
:102a200059003200e808900018089000008040002b
:102a3000600c9800a80c90000900e0001100340020
:102a400009057800e28f5400010036002a002000ba
:102a5000c80190000a017800ec80570058009000ef
:102a600003000100500498000000e000450032001f
:102a7000680890000a004000600c98008a845400a6
:102a8000edff3700380990000200e0000e0034002e
:102a9000e80090001808900080804000c801900075
:102aa0005800900003000100500498008080eb0063
:102ab0000000e00034003200e80890003808900080
:102ac00000804000600c9800c80c90000900e000f5
:102ad0001100340009057800e28f5400010036002f
:102ae0002a002000c80190000a017800ec805700fd
:102af0005800900003000100500498000000e0001e
:102b000020003200680890000a004000600c980025
:102b10008a845400edff3700081090008000eb001d
:102b20000028a300180032000b00e000160034005b
:102b30008b04780009057800e28f5400010036000c
:102b40002a002000c80190000a017800ee8057009a
:102b50005800900003000100500498000000e000bd
:102b600008003200680890000a004000600c9800dd
:102b70008a8454004240a900eeff3c008000eb0034
:102b8000010037008080eb00010078004f067800dc
:102b90004f05be004f04be000080fa000000060092
:102ba0000108780000000600e600400011017800ee
:102bb00005002800850261006f016100820878002d
:102bc000020032001200200011003700a001900026
:102bd000120020000300e0000d003a009001900078
:102be0000300e0000a003a001000e00008003a008c
:102bf00036003700640340009608780080017800b2
:102c0000530b780090097800040878007001510097
:102c1000110278000400e000f6ff320013003700d4
:102c200064024000140378004f33de0083814100ca
:102c30008308730080017800d3037800cf3bde0067
:102c40001403780006034300068a73001302780019
:102c500004024200100378004f33de008609720040
:102c600090017800038841000201e9009101780099
:102c7000ef8f5100eaff3600100037008001780026
:102c8000530378004f33dd001002d10004087300b5
:102c90006402400094037800cf3bdd001303d100b1
:102ca00086897300110378004f33dd009401d10051
:102cb000030a73009108d1000201e8009101780035
:102cc000ff8f5100edff3e00ef8861009188720098
:102cd00002007800000006008f1fd10000030700eb
:102ce0008f87e9000000e00000000600809feb00f5
:102cf000fb0207008f87e9000000e00000000600eb
:102d00002800fa00889fbe008a9fbe008c9fbe00ec
:102d100003866b008f0007006400e100440032006e
:102d20006408e1004a0032006100e1004600320020
:102d30006108e10049003200ec0647006000b8007d
:102d40003d02be003d03be00f48657006011b8008e
:102d50003d04be003d05be007d0320000b00370092
:102d60000000a0008d06e9001300320004024200ba
:102d700085824a0006034b0087834b000000400019
:102d80008180480002014900838149000802520005
:102d900089825a000a035b008b835b00f0ff3b00d3
:102da0000802420089824a000a034b008b834b00d1
:102db0008d06e900edff3a0084827200868272007f
:102dc000f707b20087827200010032001500200070
:102dd0001e0490003e0b900006035400e63fb00036
:102de0000368a300070032000000a7000500a00050
:102df0008301d1000281d3008180d3000080d30001
:102e00000603e8008301d1000281d3008180d30052
:102e10000080d3000002eb000482d20021000700f2
:102e200003f0a1000cf0a70003f0a0005d00370044
:102e3000640247006408e100570032003400be001d
:102e40003401be00f6ff37006108e1005200320095
:102e50006011b8006000b800f1ff370003ff2700e1
:102e600002002000fbff3700839f68000100e000a4
:102e700002003d0060001000e08018000300e00048
:102e800002003d0060011100e08119009df807007b
:102e90004f00e00002003b0060001000e0801800de
:102ea000000006001800200057002000080453000e
:102eb0000d003d000600200097fc2f000740e100b8
:102ec0001e00340084827200610260008301d10020
:102ed0000281d3008180d3000080d3000804e80081
:102ee000f8ff3a0047002000610460000504740008
:102ef000040464000d00320061004000e0804800de
:102f000060014900e081490003b8a50007003200d4
:102f10000603e8006538e10004003a008301d100af
:102f20000281d3008180d3000080d300f87f20008d
:102f30000830e10003003500080378006000b800a5
:102f40006011b8004433dd00f300b2008301730068
:102f500000000600680447000294be000094be0012
:102f6000fc0447008694be008494be0009007800eb
:102f7000a402070008007800a20207009900780068
:102f8000814f70000b003b000800be007d0207006f
:102f90004f00b10003003700f3ff2700f2ff2f00be
:102fa0006110b9004f06be004f05be004f04be00c1
:102fb0000080fa00000006008103780093f7070004
:102fc0000001be006000b8000478a30013003a00be
:102fd0006220e10015003e000d0039008301d100a0
:102fe0000281d3008180d3008301d1000281d3000c
:102ff0008180d3008301d1000281d3008180d3007e
:103000000538b000c42add00f300b20083817200ed
:1030100007f0a70003f0a00000000600f3ff270060
:10302000f2ff2f006110b900fbff370003ff2700fc
:10303000f7ff37001400fa00889fbe008a9fbe0089
:103040008c9fbe000004be000205be006800470061
:103050000a90be000890be006a0207000070a70038
:103060000bf0a100304320009e02900080825200ad
:10307000b0fe2f000028e10011003d00b0fc2f0041
:103080000028e100150034001e0990008e08900011
:103090007e0090000501b0000201d1008180d300c4
:1030a0000080d3008502e800fbff3a000b00e0003f
:1030b000bcff3b0060001000e0801800b9ff370043
:1030c000f0ff2f00f1ff27000b00e000b5ff3b00f1
:1030d0000100280000002000b2ff37006000b800a7
:1030e000b0ff37004f89de00820178006c023700a4
:1030f0002800fa00889fbe008a9fbe008c9fbe00f9
:1031000003866b0093ff07000028a30064003a00c9
:103110000128a30067003a000008a30062003a00fb
:103120000108a30065003a001e009000be08900050
:1031300081064000ed3fb100f4805700ee019000a1
:10314000111ab8008e099000311bb8009e0990003a
:10315000311cb800511db800f48557004600070027
:10316000fe0190003a0007008b85e8003e00070052
:103170008e09900040000700ee0190003400070027
:103180008b85e800380007008e099000400007009a
:103190009e0990001b18b800890440000a85480069
:1031a000fe019000340007008b85e800380007001e
:1031b000ee019000300007008e0990001b18b80047
:1031c000890440000a8548000a98a30008003a00d4
:1031d0000402420085824a0006034b0087834b00ad
:1031e00008044c0089844c000a054d008d06e90056
:1031f00084827200850273004c3add008502720001
:103200000100320015002000443ade001400b20034
:103210004538de00cb45dd000b007000c540de0008
:10322000cb4ddd008b8070004549de00cb55dd00c5
:103230000b017100c551de000d03780019ff070076
:1032400003f0a1000cf0a70003f0a00055ff370029
:103250001b18b8008502400006834800e0834b003d
:1032600060044c00070037001b18b800060340003c
:1032700087834800faff37001b18b8008703400017
:1032800008844800e0844c0060054d000000060002
:103290001b18b8000804400089844800faff370072
:1032a0000108a3003cff3a005800be005801be00d0
:1032b000e3ff37000008a30037ff3a000904780055
:1032c000f9ff370007f0a20008013700020ab90031
:1032d000001bb9000200b8008100420081004300d9
:1032e00000000600889fbe008a9fbe003004420096
:1032f000b0844a0030054b0090854b006000b1005f
:103300000898be000a90be000440e10005c8e10034
:1033100006d0e10007d8e10002003100680040005b
:103320001008e8004f05be004f04be000000060074
:10333000889fbe008a9fbe003004be002005be00ec
:103340000418540005985c0006185d0007985d009d
:10335000110020000440e10005c8e10006d0e100b2
:1033600007d8e100010039008000eb001088100050
:103370004f05be004f04be00000006001200fa0018
:10338000889fbe008a9fbe008c9fbe00e0b79f0052
:10339000f1b79f0082bf9f0093bf9f000605be004c
:1033a0000404be000000eb00d0b79f00c0b79f0030
:1033b000b0b79f00a0b79f0090b79f000006eb003a
:1033c0005fb19700cfb09700820141003fb09700f6
:1033d0000200e00004003d00370007007e80570037
:1033e000c0ff070003003700330007007e8057004e
:1033f000cfff0700dfb697000d00e0000c0035009e
:103400006fb29700ffb297000fbb97009fbb97006a
:1034100010002000010020006011b80000027200be
:103420008182720002037300838373001b00070014
:103430000c06e80001042000810f5600e0ff3a006e
:103440000d00e00004003d000802be000a03be00bb
:103450007e805700a3ff07005fa897000000e000f0
:1034600005003a001fb29700afb297003fb3970034
:10347000cfb39700090007006fb09700ffb0970027
:103480000fb997009fb997004f06be004f05be00c9
:103490004f04be000080fa00000006000100070093
:1034a00000000600a4b79f00b5b79f00c6b79f00f5
:1034b000d7b79f00000006004f09de00828171002f
:1034c000b3b79f004f01de00818040008280700012
:1034d000a1b79f008fb097004f09de0000004000a9
:1034e0000200700090b79f007fa897004f01de0098
:1034f000818040008280700081b79f000d0007002e
:103500004f3ade000000400004007000f0af9f0062
:10351000080007000402420085824a0006034b00af
:1035200087834b00dfff07000802be000a03be00ce
:10353000000006002fb29700bfb297004fb397006c
:10354000dfb3970000000600881f780018002000f5
:10355000881f780089ff07008f87e9004f047800f3
:1035600000000600801feb0084ff07008f87e90042
:1035700000000600889fbe008a9fbe00e00f50003a
:10358000e08f5800e00f5900e08f59000c003d001b
:103590006044b8006055b8000000540081805c00b1
:1035a00002015d0083815d00180020001500070006
:1035b00008003d00180007000004eb00050037007c
:1035c0000004eb000f00070002003d00120007009e
:1035d00018002000dcff07000800e00006003200b1
:1035e0006022b8006033b8000000520081805a00a9
:1035f00002015b0083815b004f05be004f04be00eb
:1036000000000600e00f5200e08f5a00e00f5b0060
:10361000e08f5b00000006006044b8006055b80011
:103620000402540085825c0006035d0087835d0010
:1036300000000600889fbe008a9fbe008c1f780095
:10364000e00f5000e08f5800e00f5900e08f590064
:103650000d003d006044b8006055b8000000540003
:1036600081805c0002015d0083815d001c00200000
:103670000820e10009a8e1000ab0e1000bb8e10070
:103680000d003d00080037000006eb00e00f52007f
:10369000e08f5a00e00f5b00e08f5b0006003d000a
:1036a0006044b8006055b8000402540085825c0094
:1036b00006035d0087835d00aaff07000c00e000a1
:1036c000060032006022b8006033b80000005200eb
:1036d00081805a0002015b0083815b004f06780005
:1036e0004f05be004f04be00000006002800fa008f
:1036f000889fbe008a9fbe008c9fbe000706780090
:10370000878669000c003b0003047800870478007a
:1037100008f0a10009f0a100840f5000858f580027
:10372000860f5900890f5c00030033000cf0a200e3
:1037300001003a000cf0a10006fe07006400e10061
:103740005f003200780147006408e1006100320048
:103750006c014700748557003200be001201be00a4
:103760003a04be001a05be001e039000be0a900077
:103770008503530006003d000004fd008104fd00a8
:103780000205fd008305fd008703ea0005037800bc
:103790000df8a3000400320060041400e0841c0053
:1037a00060051d00e0851d006022b8007d0320003b
:1037b0000d38e1008006eb000b0039004433dd00da
:1037c000f300b20083017300390037008482720075
:1037d0000d027800e10664008b85d1000a85d300d4
:1037e0008984d3000884d3008703e900f7ff3b00f6
:1037f00008004000898048000a0149008b81490087
:1038000004003b0060001000e08018006001190017
:10381000e08119000358a300090032008d82720074
:1038200084827200610260008301d1000281d300b2
:103830008180d3000080d3000603e8001b0037001e
:103840000348a30017003a000600e0001700340008
:103850000603e9000d00a300000048008180480035
:1038600002014900838149000348a3000f003a0088
:103870000600e000090034000603e90000004000f3
:1038800081804800020149008381490001003a001b
:103890000003eb000348a300f5ff32006022b800ec
:1038a0000200370084827200618266007dfd07009d
:1038b00003f0a1000cf0a70003f0a000b9fd370051
:1038c000640147006408e10002003a000df8a3001b
:1038d000b1fd3a003200be001201be00b1fd37005a
:1038e000889fbe008a9fbe008c9fbe000404be005d
:1038f0000605be00809fbe00829fbe002f0007000d
:10390000040678000800be000a01be002b00070074
:10391000840678004f03be004f02be008d4f760034
:103920007fb0970013003300f0ff2f008b8f6b00e8
:1039300006003b000d0666000c00a7000a003700d9
:1039400007f0a600100020000a003700880f520080
:10395000898f5a008a0f5b008b8f5b000300390050
:103960001000200001003e000000200007f0a7002a
:103970000000ea004f06be004f05be004f04be0027
:1039800000000600e48240001078a3000700320027
:10399000640240001178a3003400be001401be0090
:1039a000040032000330a700000006003500be000e
:1039b0001501be000330a0000000060005ff27002f
:1039c00005826100070032000428e1000100320096
:1039d000240005000600070001003a00440005002d
:1039e0000408050002000700f9ff3a001400050072
:1039f0006f82610081027000850271008502720091
:103a000000000600800078005002be005003be0097
:103a10004439de00f700b200f37f200003016100ab
:103a2000090032000218e10016003a008501720018
:103a300083017300838173000008200015003a00a1
:103a400040002000130037008501720083017300dd
:103a50008381730005003a0004a8be0006a8be00da
:103a6000100020000b0037000201e90004024200b0
:103a700085824a0006034b0087834b000748a3005a
:103a8000f9ff32000740a00004a8be0006a8be004f
:103a9000200020008000980092009800000006009e
:103aa000881f7800030478000300e00007003d0051
:103ab00060001000e080180060011900e08119002a
:103ac00002003b0001f02d00030037000400070056
:103ad00008f0a70003f0a0004f04780000000600e3
:103ae000889fbe0000827000040271000482710091
:103af0002400320036432000c50020008383cf001d
:103b00000a0039000541b1008283cf000700390067
:103b10000541b1008183cf00040039000541b100a7
:103b20008083cf00010039000541b10085c35300f7
:103b30006022b800120032000a003b00848272004a
:103b4000610260008301d1000281d3008180d30033
:103b50000080d3000603e8008743e800f7ff3a003f
:103b60000700370000004000818048000201490042
:103b7000838149000603e9008743e900f9ff3a0021
:0c3b8000c8fc07004f04be000000060057
:020000040000fa
:103b8c000a00fa000040eb00004f780060092000aa
:103b9c00100798006000b8002007980031079800c3
:103bac000040eb00004f9800fe700700d6e2a90021
:103bbc00803602000100000080ad2f007100200053
:103bcc00684c0200010000009016890091168100db
:103bdc00f0022000808f50000b0032009016810004
:103bec00e30f5000080032003000200090168900ce
:103bfc00901681000001780080ad2f00710020002c
:103c0c00a44b0200010000003a2807005c030200ec
:103c1c00000000000004e00019003200e382a9005b
:103c2c00e3a2a900e0ae2f0071002000684c020056
:103c3c000100000000158900001581000000e8005b
:103c4c00001589000015810000017800e0ae2f00fe
:103c5c0071002000a44b0200010000003000220083
:103c6c0074040200000000000000000014040200b4
:103c7c00000000000004e000fcff3a002f290700c0
:103c8c00900f810000a0a000900f8900126e070019
:103c9c00f426020001000000a10f810000002800a2
:103cac00008060000000e00012003200a0942100af
:103cbc007404020000000000000000001404020064
:103ccc00000000000004e000fcff3a00cc6b070091
:103cdc00a00f810000f0a100a00f8900a00f8100af
:103cec0000017800c0a62f0071002000a44b020038
:103cfc0001000000a00f8100610060000000e000e6
:103d0c0017003200b10f810000802000008060009d
:103d1c000000e00012003a00910f810000402000ea
:103d2c00008060000000e00003003200700f810092
:103d3c000020a000700f8900b00f81000080a0004f
:103d4c00b00f8900b00f81000001780020aa2f006d
:103d5c0071002000a44b020001000000db70070082
:103d6c00900f810000b0a100900f8900900f81008e
:103d7c000070a100900f8900010037005f0b070055
:103d8c003104800000002100008060000000e00091
:103d9c00faff320021c0b30010c0b3004c26020061
:103dac00010000008780a9008560a900120037007f
:103dbc00a10f810000002400008060000000e000e2
:103dcc0008003200910f8100000820000080600084
:103ddc000000e00003003a00b6700700000000008d
:103dec007a00370031c0b30010c0b3004c2602007b
:103dfc00010000008a700700210480000080200070
:103e0c00008060000000e0000c003a00a10f81006f
:103e1c0000002400008060000000e00007003a0071
:103e2c001116800000002100008060000000e000fe
:103e3c000200320010002000010037000000eb00ef
:103e4c008040780022048000008020000000610087
:103e5c000000e00011003a00a20f810000002400d5
:103e6c00000061000000e0000c003200920f8100a5
:103e7c0000082000000061000000e0000700320094
:103e8c001216800000002100000061000000e0001c
:103e9c000200320010002000010037000000eb008f
:103eac000040780000c070000004e000c0ff3a0041
:103ebc004600370041c0b30010c0b3004c260200ce
:103ecc00010000008560a900686b0700401789009d
:103edc00a10f810000002400008060000000e000c1
:103eec0013003200401781000000e00010003a007f
:103efc0001178000001020000080600000f0a70077
:103f0c000000ea000000e9004f00de00011780000d
:103f1c00c708de00e1c060008180fb0000807000fb
:103f2c000000e000020032008780a8004400370047
:103f3c0040ad2f0071002000684c02000100000011
:103f4c0030178900e06521007404020000000000b5
:103f5c000000000014040200000000000004e00057
:103f6c00fcff3a0030178100801f7800801c220073
:103f7c00801f7800c0232200d0080200000000003f
:103f8c00e4875700c02322007404020000000000e4
:103f9c000000000014040200000000000004e00017
:103fac00fcff3a00166b0700900f81000070a10017
:103fbc00900f8900900f81000001780060a92f00fc
:103fcc0071002000a44b020001000000a10f810031
:103fdc0000002400008060000000e00018003200a7
:103fec0001178000001020000080600000f0a70086
:103ffc000000ea000000e9004f00de00011780001d
:10400c00c708de00e1c060008180fb00008070000a
:10401c000000e0000a003200910f8100000820002f
:10402c00008060000000e0000500320021048000e8
:10403c0000802000008060000000e0009dff3a003e
:10404c00a10f810000002400008060000000e0004f
:10405c000d003a0051c0b30010c0b3004c26020052
:10406c0001000000b00f81000070a100b00f8900aa
:10407c00b00f81000001780020aa2f0071002000f1
:10408c00a44b020001000000000000003cff3700c0
:10409c000000fa00d642a8000080fa0000000600da
:1040ac000000fa00d642a9000080fa0000000600c9
:1040bc000600fa00404798004e4090000080fb003c
:1040cc008000eb00008fbe004e409000e94f500086
:1040dc0002003e001e00be00720037004e409000f1
:1040ec00ef4f5000080036004e409000f94f500042
:1040fc0005003e00a2ff2f00f3ff2f003e00410001
:10410c00ae804900670037004e409000ff4f5000d2
:10411c0009003600ce40900090c2b30080cf500012
:10412c0005003e0042ff2f00f3ff2f003e00410030
:10413c00ae8049005b003700ce409000f0c2b30067
:10414c0080cf500009003600ce40900090c3b300e1
:10415c0080cf500005003e00e2fe2f00f3ff2f0041
:10416c003e004100ae8049004e003700ce4090002a
:10417c00f0c3b30080cf500009003600ce40900051
:10418c0090c4b30080cf500005003e0082fe2f008b
:10419c00f3ff2f003e004100ae8049004100370084
:1041ac00ce409000f0c4b30080cf50000900360020
:1041bc00ce40900090c5b30080cf500005003e006b
:1041cc0022fe2f00f3ff2f003e004100ae8049007d
:1041dc0034003700ce409000f0c5b30080cf5000c3
:1041ec0009003600ce40900090c6b30080cf50003e
:1041fc0005003e00c2fd2f00f3ff2f003e004100e2
:10420c00ae80490027003700ce409000f0c6b300c6
:10421c0080cf500009003600ce40900090c7b3000c
:10422c0080cf500005003e0062fd2f00f3ff2f00f1
:10423c003e004100ae8049001a0037004e4090000d
:10424c000004e00009003d00ce40900090c8b3008f
:10425c0080cf500005003e0002fd2f00f3ff2f0021
:10426c003e004100ae8049000e003700ce40900069
:10427c00f0c8b30080cf500009003600ce4090004b
:10428c0090c9b30080cf500005003e00a2fc2f0067
:10429c00f3ff2f003e004100ae80490001003700c3
:1042ac00000037000080fa00000006000400fa004d
:1042bc00204798000040eb00004f78000b003700bf
:1042cc00e222a9000032200001002000ee5f020073
:1042dc0001000000e222a8000032200001002000b2
:1042ec00ee5f0200010000001e4fe8002e4090001f
:1042fc009e40780080cf5000f1ff39000080fa001a
:10430c00000006000a00fa00400798000040eb008d
:10431c00104798000040eb00204798000040eb004d
:10432c003047980020c0b300404798000040eb0095
:10433c00504798003e0090000000a1003007980004
:10434c003e0090000010a100300798003e00900045
:10435c000020a100300798003e0090000030a10022
:10436c00300798003e0090000040a10030079800f4
:10437c003e0090000050a100300798003e009000d5
:10438c000060a00030079800402722008040eb001e
:10439c0001487800a00f810000b0a100a00f890097
:1043ac0010c0b300004f7800120437004e4090004c
:1043bc000080fb00ce009000008040001040780090
:1043cc00104798001e4090000080fb00a2080200dd
:1043dc00000000000000e00004003200a00f81008b
:1043ec0000b0a000a00f89000b053700b00f8100b2
:1043fc00614060008080fb00b00f81000000d100a4
:10440c00614060000080fb00810070003010810072
:10441c004200de00614060000080fb008100700003
:10442c00301081004300de00614060000080fb0022
:10443c00010070000000e000cf0032004e40900000
:10444c00e24f500013003a0011c0b3001e4190001f
:10445c0020c3b300804f510001003e008040eb00b0
:10446c0010c0b3009e419000f2c2b30082cf510045
:10447c00010036000040eb0000c070000004e000ba
:10448c0004003200a00f810000b0a000a00f890032
:10449c00e10437004e409000e34f500039003a00e1
:1044ac004e0090000080e8009040780020c3b300dc
:1044bc0080cf500011003a0011c0b3001e41900093
:1044cc0030c3b300804f510001003e008040eb0030
:1044dc0010c0b3009e419000f2c2b30082cf5100d5
:1044ec00010036000040eb0000c070000004e0004a
:1044fc000200320010002000010037000000eb0029
:10450c00004178004e0090000080e8009040780058
:10451c0010c3b30080cf500011003a0011c0b3009b
:10452c009e41900090c3b30080cf510001003e002b
:10453c008040eb0010c0b3001e429000f3c2b300e9
:10454c00834f5200010036000040eb0000c07000a9
:10455c000004e000020032001000200001003700cf
:10456c000000eb0000407800004071000004e00007
:10457c0004003200a00f810000b0a000a00f890041
:10458c00a50437004e409000e44f500008003a005c
:10459c009e409000a0c3b30080cf500004003200b6
:1045ac00a00f810000b0a000a00f89009a04370072
:1045bc004e409000e54f500013003a0011c0b3007c
:1045cc001e41900050c3b300804f510001003e00cb
:1045dc008040eb0010c0b3009e419000f2c2b300cb
:1045ec0082cf5100010036000040eb0000c070008b
:1045fc000004e00004003200a00f810000b0a00015
:10460c00a00f8900840437004e409000e64f500004
:10461c0013003a0011c0b3001e41900090c3b300c8
:10462c00804f510001003e008040eb0010c0b300f1
:10463c009e419000f2c2b30082cf510001003600bf
:10464c000040eb0000c070000004e00004003200e9
:10465c00a00f810000b0a000a00f89006e043700ed
:10466c004e0090006700400010407800ed4f500065
:10467c00410032004e409000e74f500008003a00d5
:10468c009e409000a0c3b30080cf500004003200c5
:10469c00a00f810000b0a000a00f89005e043700bd
:1046ac004e409000e84f500013003a0011c0b30088
:1046bc001e41900050c3b300804f510001003e00da
:1046cc008040eb0010c0b3009e419000f2c2b300da
:1046dc0082cf5100010036000040eb0000c070009a
:1046ec000004e00004003200a00f810000b0a00024
:1046fc00a00f8900480437004e409000e94f50004d
:10470c0013003a0011c0b3001e41900090c3b300d7
:10471c00804f510001003e008040eb0010c0b30000
:10472c009e419000f2c2b30082cf510001003600ce
:10473c000040eb0000c070000004e00004003200f8
:10474c00a00f810000b0a000a00f89003204370038
:10475c004e409000ea4f500007003a001e40900077
:10476c00ed4f500004003200a00f810000b0a000fb
:10477c00a00f8900280437001e80fb00e50f5000b5
:10478c0005003c00e40f500017003d00e10f500005
:10479c000004350003003700e60f50001c00320007
:1047ac001d0437001e4090000080fb000003b10088
:1047bc00e90f5000200036009e409000f0c2b3007c
:1047cc0080cf50001e0032009e409000a0c3b3006a
:1047dc0080cf50001c0032001e4090000004e0000e
:1047ec001b0032000c0437001e4090000080fb00c0
:1047fc000003b100e90f5000170036009e409000f6
:10480c00a0c3b30080cf5000150032000204370063
:10481c001e4090000080fb000003b100e90f500027
:10482c00110036009e409000a0c3b30080cf500012
:10483c00da033a000d003700000000000b003700cf
:10484c0000000000090037000000000007003700de
:10485c0000000000050037000000000003003700d6
:10486c000000000001003700000000001e40900016
:10487c000004e00002003a0000c3b30010479800a7
:10488c001e407800e34f500006003e009e40900012
:10489c00f0c2b30080cf500002003a00100020009c
:1048ac00010037000000eb00804078001e407800cb
:1048bc00e34f5000060036001e419000a0c3b30029
:1048cc00804f510002003a00100020000100370018
:1048dc000000eb000040780000c070008080fb00fe
:1048ec00a00f8100680060000000e00006003200ac
:1048fc001e419000a0c3b300804f510002003a004b
:10490c0010002000010037000000eb008100700057
:10491c00b00f8100620060000000e0000600320071
:10492c001e419000a0c3b300804f510002003a001a
:10493c0010002000010037000000eb008100700027
:10494c0030108100640060000000e00006003200be
:10495c001e419000a0c3b300804f510002003a00ea
:10496c0010002000010037000000eb0081007000f7
:10497c0030108100680060000000e000060032008a
:10498c001e419000a0c3b300804f510002003a00ba
:10499c0010002000010037000000eb000100700047
:1049ac000000e00087023a009e40900000cdb3006a
:1049bc0000c0400010479800be009000000420008a
:1049cc00008060000000e000030032009e40900078
:1049dc0031479800060037003e4090006a00b9004d
:1049ec0000007800204798009e40900031479800c6
:1049fc001e80fb00e30f50003c013200e30f50001f
:104a0c0005003c00e10f50000a003200e20f50009c
:104a1c009400320080033700e50f5000d5013200be
:104a2c00e50f50008f013500e60f500017023200e1
:104a3c0079033700a00f8100680060000000e000df
:104a4c0029003a00b00f8100620060000000e00015
:104a5c0025003a0030108100640060000000e00086
:104a6c0021003a0030108100680060000000e00076
:104a7c001d003a00ae4090003e40900080c04000c7
:104a8c00f026220001487800f026220090407800a1
:104a9c0010c0b300eccf500001003e000040eb0012
:104aac00f1262200914078008180fb008100e90012
:104abc00cf08de0081407800014070000004e00067
:104acc0005003200be009000000420000080600051
:104adc000000e000330332003e0090000000a00014
:104aec003007980027023700301081006800600002
:104afc000000e0000f003200ae4090003e409000fd
:104b0c0080c04000003322000148780000332200ae
:104b1c0010407800f74f50000b023600be0090009a
:104b2c0000042000008060000000e00008023a0051
:104b3c0039033700b00f8100620060000000e00014
:104b4c00150032002e4090008080fb003e4090000b
:104b5c000080fb0000804000cf80de00201989001f
:104b6c00311989002219810033198100700120004c
:104b7c0001002000800f5100818f59001400360075
:104b8c00be00900000042000008060000000e000e7
:104b9c000f003a0020033700ae4090003e409000da
:104bac0080c04000202722000148780020272200e6
:104bbc0010407800f74f500005003600be00900002
:104bcc0000042000008060000000e000f7023200ca
:104bdc00b00f8100620060000000e0000e003a009f
:104bec0030108100640060000000e0000a003a0010
:104bfc0030108100680060000000e00006003a0000
:104c0c0020272200104078008040780090c0b3002c
:104c1c00725c020001000000301081006400600032
:104c2c000000e000cc013200202722001040780068
:104c3c0080407800c0c0b300725c0200010000002c
:104c4c0020272200104078000080fb000001780033
:104c5c0000ae2f0071002000a44b020001000000e8
:104c6c00c8013700a00f8100680060000000e00060
:104c7c0029003a00b00f8100620060000000e000e3
:104c8c0025003a0030108100640060000000e00054
:104c9c0021003a0030108100680060000000e00044
:104cac001d003a00ae4090003e40900080c0400095
:104cbc00002722000148780000272200904078004d
:104ccc0010c0b300ffcf500001003e000040eb00cd
:104cdc0001272200914078008180fb008100e900cf
:104cec00cf08de0081407800014070000004e00035
:104cfc0005003200be00900000042000008060001f
:104d0c000000e000ab0232003e0090000010a0005a
:104d1c00300798009b01370030108100680060005c
:104d2c000000e00010003200ae4090003e409000c9
:104d3c0080c040001033220001487800103322005c
:104d4c0090407800b0c3b30080cf5000840136008f
:104d5c00be00900000042000008060000000e00015
:104d6c0081013a00ac023700b00f81006200600094
:104d7c000000e000150032002e4090008080fb0007
:104d8c003e4090000080fb0000804000cf80de00a1
:104d9c004019890051198900421981005319810069
:104dac00b003200001002000800f5100818f5900ba
:104dbc0015003600be00900000042000008060004a
:104dcc000000e00010003a0093023700ae40900063
:104ddc003e40900080c040003027220001487800ff
:104dec003027220090407800b0c3b30080cf500031
:104dfc0005003600be00900000042000008060001a
:104e0c000000e0006d023200b00f81006200600013
:104e1c000000e00013003a003010810064006000d4
:104e2c000000e0000f003a0030272200104078000c
:104e3c008040780080c0b300725c0200010000006a
:104e4c00402722008040eb000148780040272200d8
:104e5c00104078008040780070c0b300725c020093
:104e6c000100000030108100640060000000e000d0
:104e7c003f013200ae4090003e40900080c04000a8
:104e8c00302722000148780010332200904078002f
:104e9c00b0c3b30080cf500005003600be009000b8
:104eac0000042000008060000000e0004502320099
:104ebc00302722001040780080407800b0c0b3004a
:104ecc00725c0200010000003027220010407800c4
:104edc000080fb000001780020ae2f007100200044
:104eec00a44b02000100000026013700a00f810036
:104efc00680060000000e0001f003a00b00f810065
:104f0c00620060000000e0001b003a0030108100dd
:104f1c00640060000000e00017003a0030108100cf
:104f2c00680060000000e00013003a00ae40900002
:104f3c003e40900080c040001027220001487800bd
:104f4c00102722009040780030c6b30080cf50006c
:104f5c0005003600be0090000004200000806000b8
:104f6c000000e000190232003e0090000020a0007a
:104f7c003007980003013700b00f81006200600019
:104f8c000000e000150032002e4090008080fb00f5
:104f9c003e4090000080fb0000804000cf80de008f
:104fac0060198900711989006219810073198100d7
:104fbc00b003200001002000800f5100818f5900a8
:104fcc0015003600be009000000420000080600038
:104fdc000000e00010003a000f023700ae409000d5
:104fec003e40900080c040004027220001487800dd
:104ffc004027220090407800b0c3b30080cf50000f
:10500c0005003600be009000000420000080600007
:10501c000000e000ef013200b00f81006200600080
:10502c000000e00006003a00402722001040780003
:10503c008040780070c0b300725c02000100000078
:10504c001e4090000004e000cb003a00be0090002f
:10505c0000042000008060000000e000c8003a005e
:10506c00ed013700b00f8100620060000000e0002d
:10507c0012003a00ae4090003e40900080c04000cc
:10508c0020272200014878002027220010407800b9
:10509c00f74f500005003600be00900000042000c1
:1050ac00008060000000e000cc0132003e00900067
:1050bc000030a00030079800b2003700301081009b
:1050cc00680060000000e00012003200ae4090006a
:1050dc003e40900080c04000003322000148780020
:1050ec000033220010407800f74f500005003600c6
:1050fc00be00900000042000008060000000e00072
:10510c00b80132003e0090000030a000300798003b
:10511c009c0037002e4090008080fb003e409000a9
:10512c000080fb0000804000cf80de002019890049
:10513c003119890022198100331981007001200076
:10514c0001002000800f5100818f590005003600ae
:10515c00be00900000042000008060000000e00011
:10516c00a20132003e0090000030a00030079800f1
:10517c0084003700b00f8100620060000000e00086
:10518c0013003a00ae4090003e40900080c04000ba
:10519c003027220001487800302722009040780008
:1051ac00b0c3b30080cf500005003600be009000a5
:1051bc0000042000008060000000e0008d0132003f
:1051cc003e0090000040a000300798006d003700b2
:1051dc0030108100680060000000e0001300320015
:1051ec00ae4090003e40900080c040001033220042
:1051fc00014878001033220090407800b0c3b3000f
:10520c0080cf500005003600be0090000004200046
:10521c00008060000000e000780132003e00900049
:10522c000040a00030079800560037002e40900038
:10523c008080fb003e4090000080fb00008040001e
:10524c00cf80de0040198900511989004219810074
:10525c0053198100b003200001002000800f510081
:10526c00818f590005003600be009000000420001c
:10527c00008060000000e000620132003e009000ff
:10528c000040a000300798003e003700b00f8100ae
:10529c00620060000000e00013003a00ae40900095
:1052ac003e40900080c0400040272200014878001a
:1052bc004027220090407800b0c3b30080cf50004c
:1052cc0005003600be009000000420000080600045
:1052dc000000e0004d0132003e0090000050a000a4
:1052ec0030079800270037002e4090008080fb008c
:1052fc003e4090000080fb0000804000cf80de002c
:10530c006019890071198900621981007319810073
:10531c00b003200001002000800f5100818f590044
:10532c0005003600be0090000004200000806000e4
:10533c000000e000370132003e0090000050a00059
:10534c00300798000f003700000000000d003700f8
:10535c00000000000b0037000000000009003700bf
:10536c0000000000070037000000000005003700b7
:10537c0000000000030037000000000001003700af
:10538c00000000003e0090000060a1003007980073
:10539c004e4090000040e800404798000100370064
:1053ac00000000004e4090000080fb00ce009000fa
:1053bc000080400010407800ed4f5000fbfb3a009d
:1053cc0001003700000000004e4090000040e80053
:1053dc00404798003e0090000060a0003007980005
:1053ec000040eb00204798000040eb00304798004d
:1053fc001e4fe8001e407800e64f5000e8ff3600d4
:10540c0030108100640060000000e0000e003200eb
:10541c00202722001040780080407800c0c0b300e4
:10542c00725c02000100000020272200104078006e
:10543c000080fb000001780000ae2f0071002000fe
:10544c00a44b020001000000b00f8100620060005c
:10545c000000e000f0003a003e00900061006000a7
:10546c000000e00006003200f02622001040780018
:10547c008040780050c0b300725c02000100000054
:10548c003e009000620060000000e0000600320068
:10549c0000272200104078008040780040c0b30004
:1054ac00725c0200010000003e009000640060008d
:1054bc000000e000060032001027220010407800a7
:1054cc008040780060c0b300725c020001000000f4
:1054dc003e009000680060000000e0000a0032000e
:1054ec00a00f8100680060000000e00006003a0098
:1054fc0020272200104078008040780020c0b300a4
:10550c00725c0200010000003e0090006800600028
:10551c000000e0000d003200a00f81006800600068
:10552c000000e00009003200202722001040780023
:10553c008040780090c0b300725c02000100000053
:10554c0010c0b300065c0200010000003e00900099
:10555c00700060000000e0000a003200a00f810023
:10556c00680060000000e00006003a0030272200ce
:10557c00104078008040780010c0b300725c0200cc
:10558c00010000003e009000700060000000e00090
:10559c000d003200a00f8100680060000000e000e8
:1055ac00090032003027220010407800804078003b
:1055bc0080c0b300725c02000100000010c0b30098
:1055cc00065c020001000000be00900000022000fa
:1055dc00008060000000e00006003200402722003e
:1055ec0010407800804078000040eb00725c0200b4
:1055fc0001000000d1220700f0b420007404020066
:10560c000000000000000000140402000000000074
:10561c000004e000fcff3a0050c0b300d65d02006d
:10562c0001000000e126220080487800e0262200dc
:10563c0010407800d45a020001000000f002200053
:10564c00ae04020000000000000000001404020080
:10565c00000000000004e000fcff3a0040c0b30072
:10566c00d65d020001000000e1262200804878008f
:10567c00e026220010407800d45a020001000000fd
:10568c00f0022000ae040200000000000000000048
